:100000000C942A000C943F000C943F000C943F0089
:100010000C943F000C943F000C943F000C943F0064
:100020000C943F000C943F000C943F000C943F0054
:100030000C943F000C943F000C943F000C943F0044
:100040000C943F000C943F000C943F000C943F0034
:100050000C943F0011241FBECFE5D8E0DEBFCDBF1A
:1000600013E0A0E6B0E0EEE0FBE302C005900D92E5
:10007000A632B107D9F70E940B0F0C94851D0C9482
:100080000000EF92FF920F931F937B018C0120E001
:1000900030E040E05FE40E94ED0388238CF0C8016B
:1000A000B70120E030E040E05FE40E94B9010E9427
:1000B000AB049B01AC01205030404040504806C08A
:1000C000C801B7010E94AB049B01AC01B901CA0190
:1000D0001F910F91FF90EF900895A0E0B0E0E3E74B
:1000E000F0E00C94161DDC012B01FA019C9192307A
:1000F00008F439C1EB018881823008F433C19430AF
:1001000069F4843009F02FC111969C91119789816F
:10011000981709F428C1A8E1B2E025C1843009F498
:1001200021C18230A9F4923009F01DC19A01AD01BC
:1001300088E0EA010990AE01E90109929E0181502F
:10014000C1F7E201898111969C918923818308C1BD
:10015000923009F407C112962D903C901397EB0151
:100160008A819B811496AD90BD90CD90DC901797BD
:10017000EC80FD800E811F819101281B390BB90194
:1001800037FF04C066277727621B730B6032710547
:100190000CF061C0121613066CF537014801062EEB
:1001A00004C096948794779467940A94D2F721E0D8
:1001B00030E040E050E004C0220F331F441F551FC1
:1001C0006A95D2F721503040404050402E213F21C7
:1001D00040235123211531054105510521F021E02E
:1001E00030E040E050E079018A01E628F72808294C
:1001F00019293CC0232BD1F1260E371E35014601AB
:10020000062E04C096948794779467940A94D2F744
:1002100021E030E040E050E004C0220F331F441FD3
:10022000551F6A95D2F721503040404050402A2156
:100230003B214C215D21211531054105510521F05E
:1002400021E030E040E050E059016A01A628B728DB
:10025000C828D9280BC0821593052CF01C01AA24AC
:10026000BB24650103C0EE24FF24870111969C91F5
:10027000D20111968C91981709F445C0992339F051
:10028000A80197012A193B094C095D0906C0A6017E
:1002900095012E193F09400B510B57FD08C01182E3
:1002A0003382228224833583468357831DC081E0B5
:1002B00081833382228288279927DC01821B930B5A
:1002C000A40BB50B84839583A683B7830DC0220F3F
:1002D000331F441F551F24833583468357838281F0
:1002E000938101979383828324813581468157814D
:1002F000DA01C9010197A109B1098F5F9F4FAF4F83
:10030000BF4328F30BC0918333822282EA0CFB1C8B
:100310000C1D1D1DE482F5820683178383E0808314
:10032000248135814681578157FF1AC0C901AA2708
:1003300097FDA095BA2F81709070A070B0705695FF
:10034000479537952795822B932BA42BB52B848328
:100350009583A683B7838281938101969383828359
:10036000DF0101C0D201CD01CDB7DEB7E2E10C94CF
:10037000321DA0E2B0E0EFEBF1E00C94221D6983A6
:100380007A838B839C832D833E834F835887E9E058
:10039000EE2EF12CEC0EFD1ECE010196B7010E944F
:1003A00023068E010F5E1F4FCE010596B8010E94F5
:1003B00023068A8991E089278A8BC701B801AE019B
:1003C000475E5F4F0E946D000E944E05A096E6E0DA
:1003D0000C943E1DA0E2B0E0E0EFF1E00C94221D91
:1003E00069837A838B839C832D833E834F835887D5
:1003F000F9E0EF2EF12CEC0EFD1ECE010196B701B7
:100400000E9423068E010F5E1F4FCE010596B80194
:100410000E942306C701B801AE01475E5F4F0E94EC
:100420006D000E944E05A096E6E00C943E1DA0E2F1
:10043000B0E0EDE1F2E00C94161D69837A838B83C2
:100440009C832D833E834F835887CE010196BE0146
:10045000675F7F4F0E942306CE010596BE016F5E47
:100460007F4F0E9423069985923088F089898230D7
:10047000C8F0943019F4823051F404C0843029F467
:10048000923081F488E192E0C6C0923049F420E0D5
:100490009A858A89981321E02A87CE010996BBC0E4
:1004A000823049F420E09A858A89981321E02A8BCA
:1004B000CE014196B0C02D843E844F8458886D880B
:1004C0007E888F88988CEE24FF248701AA24BB2481
:1004D000650140E050E060E070E0E0E0F0E0C10184
:1004E00081709070892BE9F0E60CF71C081D191D2E
:1004F0009A01AB012A0D3B1D4C1D5D1D80E090E073
:10050000A0E0B0E0E614F7040805190520F481E046
:1005100090E0A0E0B0E0BA01A901480F591F6A1F9E
:100520007B1FAA0CBB1CCC1CDD1C97FE08C081E005
:1005300090E0A0E0B0E0A82AB92ACA2ADB2A3196C6
:10054000E032F10549F0660C771C881C991C569422
:10055000479437942794C3CFFA85EA892B893C893D
:100560008B859C85280F391F2E5F3F4F17C0CA010E
:1005700081709070892B61F016950795F794E79438
:1005800080E090E0A0E0B0E8E82AF92A0A2B1B2BD3
:1005900076956795579547952F5F3F4F77FDE7CF46
:1005A0000CC0440F551F661F771F17FD4160EE0CEE
:1005B000FF1C001F111F21503040403090E05907B0
:1005C00090E0690790E4790760F32B8F3C8FDB01A3
:1005D000CA018F779070A070B07080349105A1052A
:1005E000B10561F447FD0AC0E114F10401051105EC
:1005F00029F0405C5F4F6F4F7F4F40781A8EFE1797
:1006000011F081E08A8F4D8F5E8F6F8F78A383E02A
:10061000898FCE0149960E944E05A096E2E10C9486
:10062000321DA8E1B0E0E7E1F3E00C941E1D698300
:100630007A838B839C832D833E834F835887B9E0D5
:10064000EB2EF12CEC0EFD1ECE010196B7010E949F
:1006500023068E010F5E1F4FCE010596B8010E9442
:1006600023062985223008F47EC03989323010F4FF
:10067000B8017CC08A859A8989278A87243011F03D
:10068000223031F4231709F06EC068E172E06EC0C9
:10069000343039F41D861E861F86188A1C861B86F8
:1006A00004C0323021F484E08987B7015FC02B8514
:1006B0003C858B899C89281B390B3C872B87ED84D3
:1006C000FE840F851889AD88BE88CF88D88CEA143F
:1006D000FB040C051D0540F4EE0CFF1C001F111F50
:1006E000215030403C872B8720E030E040E050E054
:1006F00080E090E0A0E0B0E460E070E0EA14FB0489
:100700000C051D0540F0282B392B4A2B5B2BEA18D2
:10071000FB080C091D09B695A79597958795EE0CD2
:10072000FF1C001F111F6F5F7F4F6F31710531F785
:10073000DA01C9018F779070A070B0708034910594
:10074000A105B10561F427FD0AC0E114F10401051A
:10075000110529F0205C3F4F4F4F5F4F20782D87C8
:100760003E874F87588BBE01675F7F4FCB010E944A
:100770004E056896EAE00C943A1DA8E1B0E0E3EC7F
:10078000F3E00C94221D69837A838B839C832D83F1
:100790003E834F83588789E0E82EF12CEC0EFD1E36
:1007A000CE010196B7010E9423068E010F5E1F4FF6
:1007B000CE010596B8010E9423068985823040F05B
:1007C0008989823028F0C701B8010E949B0601C0C8
:1007D0008FEF6896E6E00C943E1DA8E1B0E0E3EFF1
:1007E000F3E00C94221D69837A838B839C832D8391
:1007F0003E834F83588789E0E82EF12CEC0EFD1ED6
:10080000CE010196B7010E9423068E010F5E1F4F95
:10081000CE010596B8010E9423068985823040F0FA
:100820008989823028F0C701B8010E949B0601C067
:100830008FEF6896E6E00C943E1DA8E1B0E0E3E29D
:10084000F4E00C94221D69837A838B839C832D832F
:100850003E834F83588789E0E82EF12CEC0EFD1E75
:10086000CE010196B7010E9423068E010F5E1F4F35
:10087000CE010596B8010E9423068985823040F09A
:100880008989823028F0C701B8010E949B0601C007
:1008900081E06896E6E00C943E1DA8E0B0E0E3E558
:1008A000F4E00C941F1D9B01AC0183E08983DA0105
:1008B000C9018827B7FD83959927AA27BB27B82E9A
:1008C000211531054105510519F482E089833AC0AB
:1008D0008823A9F0203080E0380780E0480780E8CE
:1008E000580729F460E070E080E09FEC30C0EE240F
:1008F000FF248701E21AF30A040B150B02C07901E9
:100900008A018EE1C82ED12CDC82CB82ED82FE8260
:100910000F831887C801B7010E94FF0401971816BA
:10092000190684F4082E04C0EE0CFF1C001F111FD2
:100930000A94D2F7ED82FE820F831887C81AD90A6B
:10094000DC82CB82BA82CE0101960E944E052896A7
:10095000E9E00C943B1DACE0B0E0E1EBF4E00C947A
:10096000261D69837A838B839C83CE010196BE0109
:100970006B5F7F4F0E9423068D81823061F1823050
:1009800050F1843021F48E81882351F12EC02F81C3
:10099000388537FD20C06E812F3131051CF066236C
:1009A000F9F023C08EE190E0821B930B29853A85F4
:1009B0004B855C8504C056954795379527958A9554
:1009C000D2F76623B1F050954095309521953F4F71
:1009D0004F4F5F4F0EC020E030E040E050E009C0D4
:1009E0002FEF3FEF4FEF5FE704C020E030E040E043
:1009F00050E8B901CA012C96E2E00C94421DEF9236
:100A0000FF920F931F937B018C0180E0E81680E03A
:100A1000F80681E0080780E0180788F48FEFE816F1
:100A2000F1040105110531F028F088E090E0A0E024
:100A3000B0E017C080E090E0A0E0B0E012C080E03D
:100A4000E81680E0F80680E0080781E0180728F043
:100A500088E190E0A0E0B0E004C080E190E0A0E098
:100A6000B0E020E230E040E050E0281B390B4A0BB8
:100A70005B0B04C016950795F794E7948A95D2F717
:100A8000F701E05EFD4F8081281B310941095109C2
:100A9000C9011F910F91FF90EF900895DF92EF929F
:100AA000FF920F931F93FC01E480F580068117816C
:100AB000D1808081823048F480E090E0A0E1B0E015
:100AC000E82AF92A0A2B1B2BA5C0843009F49FC001
:100AD000823021F4EE24FF24870105C0E114F104E3
:100AE0000105110519F4E0E0F0E096C06281738120
:100AF0009FEF623879070CF05BC022E83FEF261BBE
:100B0000370B2A3131052CF020E030E040E050E096
:100B10002AC0B801A701022E04C0769567955795A3
:100B200047950A94D2F781E090E0A0E0B0E004C0DD
:100B3000880F991FAA1FBB1F2A95D2F70197A109F9
:100B4000B1098E219F21A023B1230097A105B105F2
:100B500021F081E090E0A0E0B0E09A01AB01282B09
:100B6000392B4A2B5B2BDA01C9018F779070A0706B
:100B7000B07080349105A105B10539F427FF09C093
:100B8000205C3F4F4F4F5F4F04C0215C3F4F4F4FA2
:100B90005F4FE0E0F0E02030A0E03A07A0E04A0735
:100BA000A0E45A0710F0E1E0F0E079018A0127C0E3
:100BB0006038710564F5FB01E158FF4FD801C701AA
:100BC0008F779070A070B07080349105A105B10549
:100BD00039F4E7FE0DC080E490E0A0E0B0E004C08E
:100BE0008FE390E0A0E0B0E0E80EF91E0A1F1B1FA3
:100BF00017FF05C016950795F794E794319687E09F
:100C000016950795F794E7948A95D1F705C0EE24D9
:100C1000FF248701EFEFF0E06E2F67956627679559
:100C2000902F9F77D794DD24D7948E2F8695492FC8
:100C3000462B582F5D29B701CA011F910F91FF90D4
:100C4000EF90DF900895FC01DB014081518122810A
:100C5000622F6F7770E0221F2227221F9381892F36
:100C6000880F822B282F30E0991F9927991F119602
:100C70009C93119721153105A9F541155105610581
:100C8000710511F482E037C082E89FEF13969C93C0
:100C90008E9312979A01AB0167E0220F331F441F16
:100CA000551F6A95D1F783E08C930DC0220F331F37
:100CB000441F551F12968D919C911397019713967F
:100CC0009C938E931297203080E0380780E048078D
:100CD00080E4580758F314962D933D934D935C93FD
:100CE000179708952F3F310579F441155105610596
:100CF000710519F484E08C93089564FF03C081E0CA
:100D00008C9312C01C9210C02F57304013963C9306
:100D10002E93129783E08C9387E0440F551F661F34
:100D2000771F8A95D1F7706414964D935D936D93F8
:100D30007C93179708951F93DC01FB019C919230DF
:100D400008F447C08081823008F443C0943051F4E5
:100D500011961C91843099F58181682F70E0611B98
:100D600071093FC0843021F0923031F48230B9F102
:100D70008181882389F12DC011961C9111978230B1
:100D8000F1F081811817D9F412962D913C911397A7
:100D9000828193818217930794F028173907BCF05A
:100DA00014968D919D910D90BC91A02D248135813B
:100DB00046815781281739074A075B0718F4112322
:100DC00041F00AC082179307A407B50740F4112326
:100DD00019F061E070E005C06FEF7FEF02C060E0E6
:100DE00070E0CB011F910895DF93CF9300D000D026
:100DF0000F92CDB7DEB789836A834B838981282F11
:100E000030E03D832C838C819D818230910509F4F3
:100E100072C02C813D812330310534F48C819D8159
:100E20008130910571F073C12C813D8123303105F2
:100E300009F4BBC08C819D818430910509F40FC1F8
:100E400066C18B818823A9F4AAE3B0E0EAE3F0E06D
:100E50008081482F8A81282F30E081E090E0022EA7
:100E600002C0880F991F0A94E2F7809584238C931F
:100E70004EC18B818130A1F4AAE3B0E0EAE3F0E057
:100E80008081482F8A81282F30E081E090E0022E77
:100E900002C0880F991F0A94E2F7842B8C9337C104
:100EA0008B81823009F033C1AAE3B0E0EAE3F0E0DD
:100EB0008081482F8A81282F30E081E090E002C0B5
:100EC000880F991F2A95E2F7809584238C93ABE3D2
:100ED000B0E0EBE3F0E08081482F8A81282F30E0FA
:100EE00081E090E0022E02C0880F991F0A94E2F779
:100EF000842B8C930CC18B818823A9F4A7E3B0E0E9
:100F0000E7E3F0E08081482F8A81282F30E081E0FC
:100F100090E0022E02C0880F991F0A94E2F7809594
:100F200084238C93F4C08B818130A1F4A7E3B0E0DB
:100F3000E7E3F0E08081482F8A81282F30E081E0CC
:100F400090E0022E02C0880F991F0A94E2F7842BCA
:100F50008C93DDC08B81823009F0D9C0A7E3B0E06B
:100F6000E7E3F0E08081482F8A81282F30E081E09C
:100F700090E002C0880F991F2A95E2F7809584239C
:100F80008C93A8E3B0E0E8E3F0E08081482F8A8109
:100F9000282F30E081E090E0022E02C0880F991FD8
:100FA0000A94E2F7842B8C93B2C08B818823A9F436
:100FB000A4E3B0E0E4E3F0E08081482F8A81282FA9
:100FC00030E081E090E0022E02C0880F991F0A9461
:100FD000E2F7809584238C939AC08B818130A1F4B1
:100FE000A4E3B0E0E4E3F0E08081482F8A81282F79
:100FF00030E081E090E0022E02C0880F991F0A9431
:10100000E2F7842B8C9383C08B81823009F07FC000
:10101000A4E3B0E0E4E3F0E08081482F8A81282F48
:1010200030E081E090E002C0880F991F2A95E2F736
:10103000809584238C93A5E3B0E0E5E3F0E0808124
:10104000482F8A81282F30E081E090E0022E02C0F4
:10105000880F991F0A94E2F7842B8C9358C08B81D8
:101060008823A9F4A1E3B0E0E1E3F0E08081482F18
:101070008A81282F30E081E090E0022E02C0880FA4
:10108000991F0A94E2F7809584238C9340C08B814A
:101090008130A1F4A1E3B0E0E1E3F0E08081482FEA
:1010A0008A81282F30E081E090E0022E02C0880F74
:1010B000991F0A94E2F7842B8C9329C08B8182308C
:1010C00031F5A1E3B0E0E1E3F0E08081482F8A81CF
:1010D000282F30E081E090E002C0880F991F2A9508
:1010E000E2F7809584238C93A2E3B0E0E2E3F0E0A2
:1010F0008081482F8A81282F30E081E090E0022E05
:1011000002C0880F991F0A94E2F7842B8C930F90EA
:101110000F900F900F900F90CF91DF910895DF9374
:10112000CF9300D000D0CDB7DEB789836A838981A1
:10113000282F30E03C832B838B819C81823091056A
:10114000D9F02B813C812330310534F48B819C8193
:101150008130910561F01EC02B813C812330310527
:1011600081F08B819C818430910581F013C0EAE38A
:10117000F0E08A8180830EC0E7E3F0E08A8180831B
:1011800009C0E4E3F0E08A81808304C0E1E3F0E099
:101190008A8180830F900F900F900F90CF91DF91F5
:1011A0000895DF93CF9300D000D0CDB7DEB7898309
:1011B0006A838981282F30E03C832B838B819C813B
:1011C0008230910591F12B813C812330310534F43B
:1011D0008B819C818130910569F074C02B813C81A9
:1011E00023303105E1F18B819C818430910509F434
:1011F00050C068C08A81882321F4EAE3F0E01082BD
:1012000061C08A81813029F4EAE3F0E08FEF8083C6
:1012100059C08A81823009F055C0EAE3F0E01082BB
:10122000EBE3F0E08FEF80834DC08A81882321F4C7
:10123000E7E3F0E0108246C08A81813029F4E7E3D9
:10124000F0E08FEF80833EC08A818230D9F5E7E3FA
:10125000F0E01082E8E3F0E08FEF808333C08A8112
:10126000882321F4E4E3F0E010822CC08A818130ED
:1012700029F4E4E3F0E08FEF808324C08A81823098
:1012800009F5E4E3F0E01082E5E3F0E08FEF80831E
:1012900019C08A81882321F4E1E3F0E0108212C0B2
:1012A0008A81813029F4E1E3F0E08FEF80830AC086
:1012B0008A81823039F4E1E3F0E01082E2E3F0E089
:1012C0008FEF80830F900F900F900F90CF91DF9151
:1012D0000895DF93CF9300D000D00F92CDB7DEB743
:1012E00089836A834B838981282F30E03D832C8357
:1012F0008C819D818230910509F448C02C813D810B
:101300002330310534F48C819D818130910571F059
:10131000CBC02C813D812330310509F467C08C811D
:101320009D818430910509F491C0BEC08B818823D2
:10133000A9F4ABE3B0E0EBE3F0E08081482F8A81D1
:10134000282F30E081E090E0022E02C0880F991F24
:101350000A94E2F7809584238C93A6C08B81813018
:1013600009F0A2C0ABE3B0E0EBE3F0E08081482FEE
:101370008A81282F30E081E090E0022E02C0880FA1
:10138000991F0A94E2F7842B8C938EC08B8188235B
:10139000A9F4A8E3B0E0E8E3F0E08081482F8A8177
:1013A000282F30E081E090E0022E02C0880F991FC4
:1013B0000A94E2F7809584238C9376C08B818130E8
:1013C00009F072C0A8E3B0E0E8E3F0E08081482FC4
:1013D0008A81282F30E081E090E0022E02C0880F41
:1013E000991F0A94E2F7842B8C935EC08B8188232B
:1013F000A9F4A5E3B0E0E5E3F0E08081482F8A811D
:10140000282F30E081E090E0022E02C0880F991F63
:101410000A94E2F7809584238C9346C08B818130B7
:1014200009F042C0A5E3B0E0E5E3F0E08081482F99
:101430008A81282F30E081E090E0022E02C0880FE0
:10144000991F0A94E2F7842B8C932EC08B818823FA
:10145000A9F4A2E3B0E0E2E3F0E08081482F8A81C2
:10146000282F30E081E090E0022E02C0880F991F03
:101470000A94E2F7809584238C9316C08B81813087
:1014800099F4A2E3B0E0E2E3F0E08081482F8A81A2
:10149000282F30E081E090E0022E02C0880F991FD3
:1014A0000A94E2F7842B8C930F900F900F900F907B
:1014B0000F90CF91DF910895DF93CF9300D000D0AC
:1014C000CDB7DEB789836A838981282F30E03C83DA
:1014D0002B838B819C8182309105D9F02B813C81BB
:1014E0002330310534F48B819C818130910561F08A
:1014F0001EC02B813C812330310581F08B819C8182
:101500008430910581F013C0EBE3F0E08A818083A1
:101510000EC0E8E3F0E08A81808309C0E5E3F0E0F3
:101520008A81808304C0E2E3F0E08A8180830F90A7
:101530000F900F900F90CF91DF910895DF93CF938D
:1015400000D000D00F92CDB7DEB78A836B838A813B
:10155000282F30E03D832C838C819D818230910542
:10156000D9F02C813D812330310534F48C819D816B
:101570008130910561F01EC02C813D812330310501
:1015800081F08C819D818430910581F013C0E9E365
:10159000F0E0808189830EC0E6E3F0E080818983FA
:1015A00009C0E3E3F0E08081898304C0E0E3F0E078
:1015B0008081898389810F900F900F900F900F90F9
:1015C000CF91DF910895DF93CF9300D000D0CDB7B6
:1015D000DEB78A838A81282F30E03C832B838B817E
:1015E0009C8182309105D9F02B813C8123303105DB
:1015F00034F48B819C818130910561F01EC02B8178
:101600003C812330310581F08B819C8184309105B0
:1016100081F013C0E9E3F0E0808189830EC0E6E346
:10162000F0E08081898309C0E3E3F0E08081898371
:1016300004C0E0E3F0E08081898389810F900F90FE
:101640000F900F90CF91DF910895DF93CF93CDB797
:10165000DEB72E970FB6F894DEBF0FBECDBF83E086
:1016600061E00E94D10884E067E041E00E94F40656
:1016700084E066E041E00E94F40684E065E041E039
:101680000E94F40680E090E0A8E4B2E48B879C8797
:10169000AD87BE876B857C858D859E8520E030E09B
:1016A0004AEF54E40E941702DC01CB018F83988734
:1016B000A987BA876F81788589859A8520E030E08F
:1016C00040E85FE30E941D0488232CF481E090E051
:1016D0009E838D833FC06F81788589859A8520E0C0
:1016E0003FEF4FE757E40E94BD0318164CF56B859A
:1016F0007C858D859E8520E030E040E251E40E94AB
:101700001702DC01CB01BC01CD010E944100DC01CC
:10171000CB019E838D830FC088EC90E09C838B83EC
:101720008B819C810197F1F79C838B838D819E81B6
:1017300001979E838D838D819E81009769F714C0E8
:101740006F81788589859A850E944100DC01CB01F3
:101750009E838D838D819E819A83898389819A81DD
:101760000197F1F79A83898388E30E94CC0B8CE080
:101770000E94CC0B86E00E94CC0B81E00E94CC0B37
:1017800080E80E94CC0B2E960FB6F894DEBF0FBEF9
:10179000CDBFCF91DF910895DF93CF93CDB7DEB763
:1017A000AB970FB6F894DEBF0FBECDBF8BA784E01A
:1017B00067E041E00E94690984E065E040E00E9442
:1017C000690984E066E040E00E94690983E06BA556
:1017D0000E945C0A80E090E0A0E8BFE38FA398A796
:1017E000A9A7BAA76FA178A589A59AA520E030E09E
:1017F0004AEF54E40E941702DC01CB018BA39CA3A7
:10180000ADA3BEA36BA17CA18DA19EA120E030E081
:1018100040E85FE30E941D0488232CF481E090E0FF
:101820009AA389A33FC06BA17CA18DA19EA120E0BA
:101830003FEF4FE757E40E94BD0318164CF56FA128
:1018400078A589A59AA520E030E040E251E40E9405
:101850001702DC01CB01BC01CD010E944100DC017B
:10186000CB019AA389A30FC088EC90E098A38F8F37
:101870008F8D98A10197F1F798A38F8F89A19AA1D5
:1018800001979AA389A389A19AA1009769F714C027
:101890006BA17CA18DA19EA10E944100DC01CB0126
:1018A0009AA389A389A19AA19E8F8D8F8D8D9E8DDC
:1018B0000197F1F79E8F8D8F84E067E040E00E94F2
:1018C000690980E090E0A0EAB0E4898F9A8FAB8F3D
:1018D000BC8F698D7A8D8B8D9C8D20E030E04AEF36
:1018E00054E40E941702DC01CB018D8B9E8BAF8BE1
:1018F000B88F6D897E898F89988D20E030E040E82F
:101900005FE30E941D0488232CF481E090E09C8B0F
:101910008B8B3FC06D897E898F89988D20E03FEF4A
:101920004FE757E40E94BD0318164CF5698D7A8D78
:101930008B8D9C8D20E030E040E251E40E94170244
:10194000DC01CB01BC01CD010E944100DC01CB01D7
:101950009C8B8B8B0FC088EC90E09A8B898B89894C
:101960009A890197F1F79A8B898B8B899C890197CA
:101970009C8B8B8B8B899C89009769F714C06D8930
:101980007E898F89988D0E944100DC01CB019C8B60
:101990008B8B8B899C89988B8F878F8598890197F2
:1019A000F1F7988B8F8784E067E041E00E94690936
:1019B00080E090E0A0E0B0E48B879C87AD87BE8795
:1019C0006B857C858D859E8520E030E04AEF54E470
:1019D0000E941702DC01CB018F839887A987BA8701
:1019E0006F81788589859A8520E030E040E85FE363
:1019F0000E941D0488232CF481E090E09E838D8357
:101A00003FC06F81788589859A8520E03FEF4FE759
:101A100057E40E94BD0318164CF56B857C858D85B7
:101A20009E8520E030E040E251E40E941702DC0194
:101A3000CB01BC01CD010E944100DC01CB019E83A2
:101A40008D830FC088EC90E09C838B838B819C817D
:101A50000197F1F79C838B838D819E8101979E83F3
:101A60008D838D819E81009769F714C06F81788581
:101A700089859A850E944100DC01CB019E838D837C
:101A80008D819E819A83898389819A810197F1F75B
:101A90009A838983AB960FB6F894DEBF0FBECDBF95
:101AA000CF91DF910895DF93CF93CDB7DEB76D97D8
:101AB0000FB6F894DEBF0FBECDBF8D8F84E067E018
:101AC00041E00E94690984E065E041E00E94690903
:101AD00084E066E040E00E94690983E06D8D0E9429
:101AE0005C0A84E067E040E00E94690980E090E0E1
:101AF000A0EAB0E4898F9A8FAB8FBC8F698D7A8D05
:101B00008B8D9C8D20E030E04AEF54E40E94170258
:101B1000DC01CB018D8B9E8BAF8BB88F6D897E895D
:101B20008F89988D20E030E040E85FE30E941D043B
:101B300088232CF481E090E09C8B8B8B3FC06D89D7
:101B40007E898F89988D20E03FEF4FE757E40E9410
:101B5000BD0318164CF5698D7A8D8B8D9C8D20E018
:101B600030E040E251E40E941702DC01CB01BC01ED
:101B7000CD010E944100DC01CB019C8B8B8B0FC0FF
:101B800088EC90E09A8B898B89899A890197F1F783
:101B90009A8B898B8B899C8901979C8B8B8B8B89EA
:101BA0009C89009769F714C06D897E898F89988D0B
:101BB0000E944100DC01CB019C8B8B8B8B899C8923
:101BC000988B8F878F8598890197F1F7988B8F87EE
:101BD00084E067E041E00E94690980E090E0A0EACB
:101BE000B0E48B879C87AD87BE876B857C858D85B0
:101BF0009E8520E030E04AEF54E40E941702DC01A9
:101C0000CB018F839887A987BA876F81788589856B
:101C10009A8520E030E040E85FE30E941D048823BD
:101C20002CF481E090E09E838D833FC06F817885A6
:101C300089859A8520E03FEF4FE757E40E94BD0376
:101C400018164CF56B857C858D859E8520E030E0EF
:101C500040E251E40E941702DC01CB01BC01CD013E
:101C60000E944100DC01CB019E838D830FC088EC74
:101C700090E09C838B838B819C810197F1F79C83FF
:101C80008B838D819E8101979E838D838D819E8123
:101C9000009769F714C06F81788589859A850E94BD
:101CA0004100DC01CB019E838D838D819E819A83CF
:101CB000898389819A810197F1F79A8389836D9647
:101CC0000FB6F894DEBF0FBECDBFCF91DF91089560
:101CD000DF93CF93CDB7DEB761970FB6F894DEBF31
:101CE0000FBECDBF998B888B1F8680C08F85282F14
:101CF00030E088899989FC01E20FF31F80810E94FE
:101D0000530D8F858F5F8F8780E090E0A0E8BFE361
:101D10008B879C87AD87BE876B857C858D859E85EF
:101D200020E030E04AEF54E40E941702DC01CB01CE
:101D30008F839887A987BA876F81788589859A85E7
:101D400020E030E040E85FE30E941D0488232CF48B
:101D500081E090E09E838D833FC06F817885898587
:101D60009A8520E03FEF4FE757E40E94BD03181625
:101D70004CF56B857C858D859E8520E030E040E2CA
:101D800051E40E941702DC01CB01BC01CD010E948D
:101D90004100DC01CB019E838D830FC088EC90E075
:101DA0009C838B838B819C810197F1F79C838B8330
:101DB0008D819E8101979E838D838D819E81009769
:101DC00069F714C06F81788589859A850E944100E2
:101DD000DC01CB019E838D838D819E819A838983D3
:101DE00089819A810197F1F79A8389838F85282FBA
:101DF00030E088899989FC01E20FF31F80818823F4
:101E000009F074CF61960FB6F894DEBF0FBECDBF58
:101E1000CF91DF9108950F931F93DF93CF93CDB7A9
:101E2000DEB7CA55D0400FB6F894DEBF0FBECDBFA7
:101E3000FE01EB5BFF4F8EE591E091838083FE0115
:101E4000ED5BFF4F8AE090E09183808380E090E03B
:101E5000A8ECB2E4FE01FD9680839183A283B38354
:101E600081E090E00E94E31380E090E00E94E313A1
:101E70000E94250BE2E3F0E0808160E040E00E94F8
:101E8000F406E2E3F0E0808161E041E00E94F406C4
:101E9000EBE3F0E0808160E041E00E94F4060E9404
:101EA0007412EBE3F0E0808160E040E00E94690999
:101EB00080E090E0A8ECB2E48DAB9EABAFABB8AFE6
:101EC0006DA97EA98FA998AD20E030E04AEF54E4D7
:101ED0000E941702DC01CB0189AB9AABABABBCAB68
:101EE00069A97AA98BA99CA920E030E040E85FE3CA
:101EF0000E941D0488232CF481E090E098AB8FA70A
:101F00003FC069A97AA98BA99CA920E03FEF4FE7C0
:101F100057E40E94BD0318164CF56DA97EA98FA940
:101F200098AD20E030E040E251E40E941702DC016D
:101F3000CB01BC01CD010E944100DC01CB0198AB7B
:101F40008FA70FC088EC90E09EA78DA78DA59EA5BA
:101F50000197F1F79EA78DA78FA598A9019798AB38
:101F60008FA78FA598A9009769F714C069A97AA9C6
:101F70008BA99CA90E944100DC01CB0198AB8FA7E3
:101F80008FA598A99CA78BA78BA59CA50197F1F776
:101F90009CA78BA7EBE3F0E0808160E041E00E942A
:101FA000690980E090E0AAE7B4E48FA398A7A9A705
:101FB000BAA76FA178A589A59AA520E030E04AEFDD
:101FC00054E40E941702DC01CB018BA39CA3ADA3B8
:101FD000BEA36BA17CA18DA19EA120E030E040E8D2
:101FE0005FE30E941D0488232CF481E090E09AA313
:101FF00089A33FC06BA17CA18DA19EA120E03FEFF2
:102000004FE757E40E94BD0318164CF56FA178A561
:1020100089A59AA520E030E040E251E40E94170231
:10202000DC01CB01BC01CD010E944100DC01CB01F0
:102030009AA389A30FC088EC90E098A38F8F8F8D0F
:1020400098A10197F1F798A38F8F89A19AA1019781
:102050009AA389A389A19AA1009769F714C06BA1DB
:102060007CA18DA19EA10E944100DC01CB019AA31D
:1020700089A389A19AA19E8F8D8F8D8D9E8D0197A9
:10208000F1F79E8F8D8F0E94121580E690E02BE66F
:1020900030E0B9010E948C17FE01E95BFF4F11820D
:1020A00010821CAE1BAECE01855B9F4F63969FAF27
:1020B0008EAF639783E293E065969FAF8EAF65978F
:1020C00093E066969FAF66976596EEADFFAD659718
:1020D000008065968EAD9FAD6597019665969FAF22
:1020E0008EAF65976396EEADFFAD63970082639602
:1020F0008EAD9FAD6397019663969FAF8EAF63974A
:1021000066969FAD6697915066969FAF6697669666
:10211000EFAD6697EE23C1F6CE01825B9F4F6896C6
:102120009FAF8EAF689780E293E06A969FAF8EAFC5
:102130006A9793E06B969FAF6B976A96EEADFFAD93
:102140006A9700806A968EAD9FAD6A9701966A96EF
:102150009FAF8EAF6A976896EEADFFAD689700822D
:1021600068968EAD9FAD6897019668969FAF8EAFCB
:1021700068976B969FAD6B9791506B969FAF6B97DF
:102180006B96EFAD6B97EE23C1F684E790E00E946B
:10219000680E1AAE19AE9DC080E00E940014FE01C8
:1021A000EF5BFF4F91838083FE01EF5BFF4F2BAD11
:1021B0003CAD80819181820F931F9CAF8BAFFE015C
:1021C000EF5BFF4F808191818E31910558F0DE01E8
:1021D000A95BBF4FFE01E95BFF4F808191810196B2
:1021E0008D939C9380E090E0A0E8BFE3898F9A8F65
:1021F000AB8FBC8F698D7A8D8B8D9C8D20E030E00C
:102200004AEF54E40E941702DC01CB018D8B9E8BB8
:10221000AF8BB88F6D897E898F89988D20E030E0F3
:1022200040E85FE30E941D0488232CF481E090E0E5
:102230009C8B8B8B3FC06D897E898F89988D20E028
:102240003FEF4FE757E40E94BD0318164CF5698D28
:102250007A8D8B8D9C8D20E030E040E251E40E942D
:102260001702DC01CB01BC01CD010E944100DC0161
:10227000CB019C8B8B8B0FC088EC90E09A8B898B69
:1022800089899A890197F1F79A8B898B8B899C8927
:1022900001979C8B8B8B8B899C89009769F714C065
:1022A0006D897E898F89988D0E944100DC01CB0168
:1022B0009C8B8B8B8B899C89988B8F878F8598893A
:1022C0000197F1F7988B8F8789AD9AAD01969AAFF8
:1022D00089AF89AD9AADF7E280319F070CF45CCFEE
:1022E0008BAD9CAD28EE33E0B9010E94021DCB01FD
:1022F0009CAF8BAFDE01A95BBF4FFE01E95BFF4FD7
:1023000020813181C901880F991F820F931F880F87
:10231000991F8D939C9381E00E94CC0B80E80E94D2
:10232000CC0BFE01E95BFF4F80810E94EA1B81E03C
:102330000E940014AA2797FDA095BA2FBC01CD01D9
:102340000E944D04DC01CB01BC01CD0126EF38E237
:102350004CE950E40E941702DC01CB018E01075BBF
:102360001F4FBC01CD010E944100DC01CB01F801EF
:10237000918380838E01075B1F4FFE01E75BFF4F58
:10238000808191812AE030E0B9010E94021DCB01D9
:10239000F80191838083FE01E75BFF4F80810E94FB
:1023A000D21A80E890E00E94680E80E00E9400143B
:1023B0009E01255B3F4FB9014AE050E00E94541D49
:1023C000CE01855B9F4F0E94680E80EC0E94CC0B73
:1023D00087E890E00E94680E8BAD9CAD9E01225B69
:1023E0003F4FB9014AE050E00E94541DCE01825B8C
:1023F0009F4F0E94680E80E090E0AAE7B4E48B87CC
:102400009C87AD87BE876B857C858D859E8520E00A
:1024100030E04AEF54E40E941702DC01CB018F83C5
:102420009887A987BA876F81788589859A8520E002
:1024300030E040E85FE30E941D0488232CF481E033
:1024400090E09E838D833FC06F81788589859A85D2
:1024500020E03FEF4FE757E40E94BD0318164CF50C
:102460006B857C858D859E8520E030E040E251E4DF
:102470000E941702DC01CB01BC01CD010E9441008A
:10248000DC01CB019E838D830FC088EC90E09C83A0
:102490008B838B819C810197F1F79C838B838D814A
:1024A0009E8101979E838D838D819E81009769F720
:1024B00014C06F81788589859A850E944100DC016E
:1024C000CB019E838D838D819E819A8389838981AF
:1024D0009A810197F1F79A83898381E00E94CC0B5E
:1024E00080E80E94CC0BD8CDDF93CF930F92CDB76D
:1024F000DEB71982AAE2B0E0EAE2F0E080818B7FE9
:102500008C938981866889838981877F8983898182
:102510008F7D898389818F7E898389818F7B898360
:10252000AAE2B0E0EAE2F0E080818F778C93AAE241
:10253000B0E0EAE2F0E080818F7B8C93AAE2B0E029
:10254000EAE2F0E080818F7D8C93AAE2B0E0EAE2DB
:10255000F0E0808180618C93AAE2B0E0EAE2F0E0F2
:10256000808188608C93E9E2F0E083E38083E0E49B
:10257000F0E01082E0E4F0E0898180830F90CF9159
:10258000DF910895DF93CF93CDB7DEB7EBE2F0E0B4
:1025900080818823DCF7ECE2F0E08081CF91DF914D
:1025A0000895DF93CF93CDB7DEB7ECE2F0E0808102
:1025B000CF91DF910895DF93CF930F92CDB7DEB720
:1025C0008983EBE2F0E08081829586958770882F81
:1025D00090E0817090700097A1F3ECE2F0E08981C7
:1025E00080830F90CF91DF9108950F931F93DF9316
:1025F000CF9300D000D0CDB7DEB79B838A836C83A6
:1026000019820FC08981282F30E08A819B818C013B
:10261000020F131F0E94C212F801808389818F5F0D
:10262000898399818C81981768F30F900F900F9090
:102630000F90CF91DF911F910F910895DF93CF936A
:102640000F92CDB7DEB78983ECE2F0E08981808319
:102650000F90CF91DF910895DF93CF9300D00F9229
:10266000CDB7DEB79B838A8319820EC08981282F5C
:1026700030E08A819B81FC01E20FF31F80810E9480
:10268000DB1289818F5F89838981282F30E08A81DD
:102690009B81FC01E20FF31F8081882339F70F90A3
:1026A0000F900F90CF91DF910895DF93CF9300D0DB
:1026B00000D000D0CDB7DEB79E838D83CE010296C9
:1026C00023E030E060E070E0A9010E944D1D82E04F
:1026D00089831FC08981E82FFF27E7FDF0958D8151
:1026E0009E812AE030E0B9010E94021D282FCE0110
:1026F0000296E80FF91F20838D819E812AE030E049
:10270000B9010E94021DCB019E838D838981815076
:10271000898389818823F4F6198211C08981282F41
:10272000332727FD3095CE010296FC01E20FF31FFF
:102730008081805D0E94DB1289818F5F898389811E
:10274000833064F326960FB6F894DEBF0FBECDBF7C
:10275000CF91DF910895DF93CF93CDB7DEB7AAE293
:10276000B0E0EAE2F0E0808180618C93CF91DF916C
:102770000895DF93CF93CDB7DEB7AAE2B0E0EAE2E7
:10278000F0E080818F7E8C93CF91DF910895DF936D
:10279000CF93CDB7DEB7AAE2B0E0EAE2F0E0808105
:1027A00088608C93CF91DF910895DF93CF93CDB75D
:1027B000DEB7AAE2B0E0EAE2F0E08081877F8C93A6
:1027C000CF91DF910895DF93CF93CDB7DEB7AAE322
:1027D000B0E0EAE3F0E080818D7F8C93AAE3B0E083
:1027E000EAE3F0E080818E7F8C93E6E2F0E087E818
:1027F0008083E7E2F0E080E48083CF91DF91089569
:10280000DF93CF93CDB7DEB76D970FB6F894DEBFE9
:102810000FBECDBF8D8FA7E2B0E0E7E2F0E0808190
:10282000982F8D8D8F70892B8C93A6E2B0E0E6E215
:10283000F0E0808180648C93E6E2F0E08081882F74
:1028400090E0807190700097B9F380E090E0A0E292
:10285000B1E48D8B9E8BAF8BB88F6D897E898F890C
:10286000988D2BEA3AEA4AE250E40E941702DC0112
:10287000CB01898B9A8BAB8BBC8B69897A898B89CD
:102880009C8920E030E040E85FE30E941D0488233B
:102890001CF481E0888B91C069897A898B899C8935
:1028A00020E030E04FE753E40E94BD0318160CF01F
:1028B0007BC06D897E898F89988D20E030E04AE762
:1028C00054E40E941103DC01CB018C879D87AE8705
:1028D000BF876C857D858E859F8520E030E04AEF3F
:1028E00054E40E941702DC01CB0188879987AA87EC
:1028F000BB87688579858A859B8520E030E040E844
:102900005FE30E941D0488232CF481E090E09F8304
:102910008E833FC0688579858A859B8520E03FEF5F
:102920004FE757E40E94BD0318164CF56C857D8572
:102930008E859F8520E030E040E251E40E9417023E
:10294000DC01CB01BC01CD010E944100DC01CB01C7
:102950009F838E830FC088EC90E09D838C838C8155
:102960009D810197F1F79D838C838E819F810197D3
:102970009F838E838E819F81009769F724C068852D
:1029800079858A859B850E944100DC01CB019F836C
:102990008E838E819F819B838A838A819B8101970D
:1029A000F1F79B838A830FC069897A898B899C8917
:1029B0000E944100DC01CB01888B88898983898151
:1029C0008A95F1F78983E4E2F0E08081882F90E036
:1029D0009A8F898FA5E2B0E0E5E2F0E08081837014
:1029E0008C93E5E2F0E08081282F30E084E090E0F5
:1029F00002C0880F991F2A95E2F79C8F8B8F2B8D31
:102A00003C8D898D9A8D820F931F9C8F8B8F8B8D20
:102A10009C8D6D960FB6F894DEBF0FBECDBFCF91E3
:102A2000DF9108950F931F93DF93CF93CDB7DEB758
:102A3000C654D0400FB6F894DEBF0FBECDBF8DE8B0
:102A400090E00E942C13FE01ED5BFF4F80E090E0D0
:102A5000AAE7B4E480839183A283B3838E01015CEF
:102A60001F4FFE01ED5BFF4F608171818281938179
:102A700020E030E04AEF54E40E941702DC01CB0171
:102A8000F80180839183A283B383FE01FF96608166
:102A900071818281938120E030E040E85FE30E9411
:102AA0001D0488232CF481E090E09EAF8DAF46C0DA
:102AB000FE01FF96608171818281938120E03FEF6A
:102AC0004FE757E40E94BD03181664F5FE01ED5B65
:102AD000FF4F608171818281938120E030E040E28C
:102AE00051E40E941702DC01CB01BC01CD010E9420
:102AF0004100DC01CB019EAF8DAF0FC088EC90E0B0
:102B00009CAF8BAF8BAD9CAD0197F1F79CAF8BAFBA
:102B10008DAD9EAD01979EAF8DAF8DAD9EAD0097F3
:102B200069F716C0FE01FF966081718182819381F1
:102B30000E944100DC01CB019EAF8DAF8DAD9EADFB
:102B40009AAF89AF89AD9AAD0197F1F79AAF89AF86
:102B500084E990E00E942C1380E090E0AAE7B4E4BE
:102B60008DAB9EABAFABB8AF6DA97EA98FA998AD69
:102B700020E030E04AEF54E40E941702DC01CB0170
:102B800089AB9AABABABBCAB69A97AA98BA99CA961
:102B900020E030E040E85FE30E941D0488232CF42D
:102BA00081E090E098AB8FA73FC069A97AA98BA973
:102BB0009CA920E03FEF4FE757E40E94BD031816A1
:102BC0004CF56DA97EA98FA998AD20E030E040E2D8
:102BD00051E40E941702DC01CB01BC01CD010E942F
:102BE0004100DC01CB0198AB8FA70FC088EC90E0CF
:102BF0009EA78DA78DA59EA50197F1F79EA78DA7EE
:102C00008FA598A9019798AB8FA78FA598A9009732
:102C100069F714C069A97AA98BA99CA90E944100EF
:102C2000DC01CB0198AB8FA78FA598A99CA78BA798
:102C30008BA59CA50197F1F79CA78BA789E990E04C
:102C40000E942C1380E090E0AAE7B4E48FA398A739
:102C5000A9A7BAA76FA178A589A59AA520E030E019
:102C60004AEF54E40E941702DC01CB018BA39CA322
:102C7000ADA3BEA36BA17CA18DA19EA120E030E0FD
:102C800040E85FE30E941D0488232CF481E090E07B
:102C90009AA389A33FC06BA17CA18DA19EA120E036
:102CA0003FEF4FE757E40E94BD0318164CF56FA1A4
:102CB00078A589A59AA520E030E040E251E40E9481
:102CC0001702DC01CB01BC01CD010E944100DC01F7
:102CD000CB019AA389A30FC088EC90E098A38F8FB3
:102CE0008F8D98A10197F1F798A38F8F89A19AA151
:102CF00001979AA389A389A19AA1009769F714C0A3
:102D00006BA17CA18DA19EA10E944100DC01CB01A1
:102D10009AA389A389A19AA19E8F8D8F8D8D9E8D57
:102D20000197F1F79E8F8D8F87EA90E00E942C1318
:102D300080E090E0AAE7B4E4898F9A8FAB8FBC8FD4
:102D4000698D7A8D8B8D9C8D20E030E04AEF54E4C4
:102D50000E941702DC01CB018D8B9E8BAF8BB88F4D
:102D60006D897E898F89988D20E030E040E85FE3AF
:102D70000E941D0488232CF481E090E09C8B8B8BB7
:102D80003FC06D897E898F89988D20E03FEF4FE7A6
:102D900057E40E94BD0318164CF5698D7A8D8B8D12
:102DA0009C8D20E030E040E251E40E941702DC01FB
:102DB000CB01BC01CD010E944100DC01CB019C8B09
:102DC0008B8B0FC088EC90E09A8B898B89899A89CC
:102DD0000197F1F79A8B898B8B899C8901979C8B42
:102DE0008B8B8B899C89009769F714C06D897E89CC
:102DF0008F89988D0E944100DC01CB019C8B8B8BCD
:102E00008B899C89988B8F878F8598890197F1F79B
:102E1000988B8F8786EB90E00E942C1380E090E0E7
:102E2000AAE7B4E48B879C87AD87BE876B857C85DA
:102E30008D859E8520E030E04AEF54E40E94170221
:102E4000DC01CB018F839887A987BA876F8178854A
:102E500089859A8520E030E040E85FE30E941D0408
:102E600088232CF481E090E09E838D833FC06F81A6
:102E7000788589859A8520E03FEF4FE757E40E94E7
:102E8000BD0318164CF56B857C858D859E8520E0ED
:102E900030E040E251E40E941702DC01CB01BC01AA
:102EA000CD010E944100DC01CB019E838D830FC0C8
:102EB00088EC90E09C838B838B819C810197F1F758
:102EC0009C838B838D819E8101979E838D838D81D1
:102ED0009E81009769F714C06F81788589859A85EE
:102EE0000E944100DC01CB019E838D838D819E81F8
:102EF0009A83898389819A810197F1F79A838983DB
:102F0000CA5BDF4F0FB6F894DEBF0FBECDBFCF91C7
:102F1000DF911F910F910895DF93CF93CDB7DEB767
:102F200062970FB6F894DEBF0FBECDBF988B8F8728
:102F30007A8B698B84EC90E00E942C138F859889A2
:102F40000E942C1383ED90E00E942C1389899A89AA
:102F50000E942C1387ED90E00E942C1380E090EEED
:102F6000ABE2B6E48B879C87AD87BE876B857C859B
:102F70008D859E8520E030E04AEF54E40E941702E0
:102F8000DC01CB018F839887A987BA876F81788509
:102F900089859A8520E030E040E85FE30E941D04C7
:102FA00088232CF481E090E09E838D833FC06F8165
:102FB000788589859A8520E03FEF4FE757E40E94A6
:102FC000BD0318164CF56B857C858D859E8520E0AC
:102FD00030E040E251E40E941702DC01CB01BC0169
:102FE000CD010E944100DC01CB019E838D830FC087
:102FF00088EC90E09C838B838B819C810197F1F717
:103000009C838B838D819E8101979E838D838D818F
:103010009E81009769F714C06F81788589859A85AC
:103020000E944100DC01CB019E838D838D819E81B6
:103030009A83898389819A810197F1F79A83898399
:1030400062960FB6F894DEBF0FBECDBFCF91DF9171
:103050000895DF93CF93CDB7DEB762970FB6F8949C
:10306000DEBF0FBECDBF988B8F877A8B698B8BEDC0
:1030700090E00E942C138F8598890E942C138FEE6C
:1030800090E00E942C1389899A890E942C1382EF68
:1030900090E00E942C1380E090E0AAE7B4E48B87D4
:1030A0009C87AD87BE876B857C858D859E8520E05E
:1030B00030E04AEF54E40E941702DC01CB018F8319
:1030C0009887A987BA876F81788589859A8520E056
:1030D00030E040E85FE30E941D0488232CF481E087
:1030E00090E09E838D833FC06F81788589859A8526
:1030F00020E03FEF4FE757E40E94BD0318164CF560
:103100006B857C858D859E8520E030E040E251E432
:103110000E941702DC01CB01BC01CD010E944100DD
:10312000DC01CB019E838D830FC088EC90E09C83F3
:103130008B838B819C810197F1F79C838B838D819D
:103140009E8101979E838D838D819E81009769F773
:1031500014C06F81788589859A850E944100DC01C1
:10316000CB019E838D838D819E819A838983898102
:103170009A810197F1F79A83898362960FB6F89442
:10318000DEBF0FBECDBFCF91DF9108950F931F9388
:10319000DF93CF93CDB7DEB762970FB6F894DEBF5B
:1031A0000FBECDBF9A8B898B188A1F8685EF90E062
:1031B00025E031E0B9010E94291888E091E00E94E1
:1031C0002C1380E090E0A0E2B1E48B879C87AD8770
:1031D000BE876B857C858D859E8520E030E04AEF3B
:1031E00054E40E941702DC01CB018F839887A987E2
:1031F000BA876F81788589859A8520E030E040E83C
:103200005FE30E941D0488232CF481E090E09E83FC
:103210008D833FC06F81788589859A8520E03FEF57
:103220004FE757E40E94BD0318164CF56B857C856B
:103230008D859E8520E030E040E251E40E94170237
:10324000DC01CB01BC01CD010E944100DC01CB01BE
:103250009E838D830FC088EC90E09C838B838B8151
:103260009C810197F1F79C838B838D819E810197CF
:103270009E838D838D819E81009769F714C06F8135
:10328000788589859A850E944100DC01CB019E8367
:103290008D838D819E819A83898389819A8101970B
:1032A000F1F79A83898388E191E00E942C131F86AD
:1032B0000FC08F85282F30E089899A898C01020FF1
:1032C000131F0E94C212F80180838F858F5F8F8742
:1032D0008F858D3270F389899A89FC01B696808139
:1032E000882F90E09C01220F331FC901880F991F7E
:1032F000880F991F820F931F282F89899A89FC01B3
:10330000B7968081820F8051888B89899A89FC01C8
:10331000B89680818033A0F189899A89FC01B8969A
:1033200080818A3368F589899A89FC01B696808103
:10333000282F30E084E690E0AC01249FC001259F57
:10334000900D349F900D1124482F89899A89FC0192
:10335000B7968081882F90E09C01220F331FC9010E
:10336000880F991F880F991F820F931F242F280FF2
:1033700089899A89FC01B8968081820F805D888B4B
:10338000888962960FB6F894DEBF0FBECDBFCF918D
:10339000DF911F910F9108950F931F93DF93CF93A8
:1033A000CDB7DEB762970FB6F894DEBF0FBECDBFC4
:1033B0009A8B898B188A1F8685EF90E025E031E093
:1033C000B9010E94291888E091E00E942C1380E046
:1033D00090E0A0E2B1E48B879C87AD87BE876B85C8
:1033E0007C858D859E8520E030E04AEF54E40E9484
:1033F0001702DC01CB018F839887A987BA876F8179
:10340000788589859A8520E030E040E85FE30E9476
:103410001D0488232CF481E090E09E838D833FC0BF
:103420006F81788589859A8520E03FEF4FE757E4E3
:103430000E94BD0318164CF56B857C858D859E8595
:1034400020E030E040E251E40E941702DC01CB01B1
:10345000BC01CD010E944100DC01CB019E838D8324
:103460000FC088EC90E09C838B838B819C810197BB
:10347000F1F79C838B838D819E8101979E838D8341
:103480008D819E81009769F714C06F817885898549
:103490009A850E944100DC01CB019E838D838D8142
:1034A0009E819A83898389819A810197F1F79A8312
:1034B000898380E591E00E942C131F860FC08F85C1
:1034C000282F30E089899A898C01020F131F0E94EE
:1034D000C212F80180838F858F5F8F878F858D3231
:1034E00070F389899A89FC01B6968081882F90E0D3
:1034F0009C01220F331FC901880F991F880F991F44
:10350000820F931F282F89899A89FC01B7968081A1
:10351000820F8051888B89899A89FC01B8968081B5
:103520008033A0F189899A89FC01B89680818A3319
:1035300068F589899A89FC01B6968081282F30E048
:1035400084E690E0AC01249FC001259F900D349F3C
:10355000900D1124482F89899A89FC01B7968081A2
:10356000882F90E09C01220F331FC901880F991FFB
:10357000880F991F820F931F242F280F89899A89FA
:10358000FC01B8968081820F805D888B8889629665
:103590000FB6F894DEBF0FBECDBFCF91DF911F9164
:1035A0000F910895DF93CF93CDB7DEB76D970FB628
:1035B000F894DEBF0FBECDBF8D8F85EF90E025E084
:1035C00031E0B9010E9429188D8D843628F488E8ED
:1035D00091E00E942C1304C088E991E00E942C1312
:1035E00080E090E0A0E2B1E4898F9A8FAB8FBC8F2E
:1035F000698D7A8D8B8D9C8D20E030E04AEF54E40C
:103600000E941702DC01CB018D8B9E8BAF8BB88F94
:103610006D897E898F89988D20E030E040E85FE3F6
:103620000E941D0488232CF481E090E09C8B8B8BFE
:103630003FC06D897E898F89988D20E03FEF4FE7ED
:1036400057E40E94BD0318164CF5698D7A8D8B8D59
:103650009C8D20E030E040E251E40E941702DC0142
:10366000CB01BC01CD010E944100DC01CB019C8B50
:103670008B8B0FC088EC90E09A8B898B89899A8913
:103680000197F1F79A8B898B8B899C8901979C8B89
:103690008B8B8B899C89009769F714C06D897E8913
:1036A0008F89988D0E944100DC01CB019C8B8B8B14
:1036B0008B899C89988B8F878F8598890197F1F7E3
:1036C000988B8F8788EA91E00E942C138D8D882F2C
:1036D00090E00E94551382EF90E00E942C1380E04E
:1036E00090E0AAE7B4E48B879C87AD87BE876B85A3
:1036F0007C858D859E8520E030E04AEF54E40E9471
:103700001702DC01CB018F839887A987BA876F8165
:10371000788589859A8520E030E040E85FE30E9463
:103720001D0488232CF481E090E09E838D833FC0AC
:103730006F81788589859A8520E03FEF4FE757E4D0
:103740000E94BD0318164CF56B857C858D859E8582
:1037500020E030E040E251E40E941702DC01CB019E
:10376000BC01CD010E944100DC01CB019E838D8311
:103770000FC088EC90E09C838B838B819C810197A8
:10378000F1F79C838B838D819E8101979E838D832E
:103790008D819E81009769F714C06F817885898536
:1037A0009A850E944100DC01CB019E838D838D812F
:1037B0009E819A83898389819A810197F1F79A83FF
:1037C00089836D960FB6F894DEBF0FBECDBFCF9143
:1037D000DF910895DF93CF93CDB7DEB76D970FB626
:1037E000F894DEBF0FBECDBF8D8F85EF90E025E052
:1037F00031E0B9010E9429188D8D843628F488E8BB
:1038000091E00E942C1304C088E991E00E942C13DF
:1038100080E090E0A0E2B1E4898F9A8FAB8FBC8FFB
:10382000698D7A8D8B8D9C8D20E030E04AEF54E4D9
:103830000E941702DC01CB018D8B9E8BAF8BB88F62
:103840006D897E898F89988D20E030E040E85FE3C4
:103850000E941D0488232CF481E090E09C8B8B8BCC
:103860003FC06D897E898F89988D20E03FEF4FE7BB
:1038700057E40E94BD0318164CF5698D7A8D8B8D27
:103880009C8D20E030E040E251E40E941702DC0110
:10389000CB01BC01CD010E944100DC01CB019C8B1E
:1038A0008B8B0FC088EC90E09A8B898B89899A89E1
:1038B0000197F1F79A8B898B8B899C8901979C8B57
:1038C0008B8B8B899C89009769F714C06D897E89E1
:1038D0008F89988D0E944100DC01CB019C8B8B8BE2
:1038E0008B899C89988B8F878F8598890197F1F7B1
:1038F000988B8F8780EE91E00E942C138D8D882FFE
:1039000090E00E94551382EF90E00E942C1380E01B
:1039100090E0AAE7B4E48B879C87AD87BE876B8570
:103920007C858D859E8520E030E04AEF54E40E943E
:103930001702DC01CB018F839887A987BA876F8133
:10394000788589859A8520E030E040E85FE30E9431
:103950001D0488232CF481E090E09E838D833FC07A
:103960006F81788589859A8520E03FEF4FE757E49E
:103970000E94BD0318164CF56B857C858D859E8550
:1039800020E030E040E251E40E941702DC01CB016C
:10399000BC01CD010E944100DC01CB019E838D83DF
:1039A0000FC088EC90E09C838B838B819C81019776
:1039B000F1F79C838B838D819E8101979E838D83FC
:1039C0008D819E81009769F714C06F817885898504
:1039D0009A850E944100DC01CB019E838D838D81FD
:1039E0009E819A83898389819A810197F1F79A83CD
:1039F00089836D960FB6F894DEBF0FBECDBFCF9111
:103A0000DF910895AA1BBB1B51E107C0AA1FBB1F72
:103A1000A617B70710F0A61BB70B881F991F5A955A
:103A2000A9F780959095BC01CD0108952F923F9202
:103A30004F925F926F927F928F929F92AF92BF92BE
:103A4000CF92DF92EF92FF920F931F93CF93DF936A
:103A5000CDB7DEB7CA1BDB0B0FB6F894DEBF0FBEC7
:103A6000CDBF09942A88398848885F846E847D8414
:103A70008C849B84AA84B984C884DF80EE80FD8016
:103A80000C811B81AA81B981CE0FD11D0FB6F8948C
:103A9000DEBF0FBECDBFED010895DC0101C06D9307
:103AA00041505040E0F70895FB019F01E8944230F7
:103AB000C4F04532B4F44A3029F497FB1EF49095D3
:103AC00081959F4F642F77270E94021D805D8A3366
:103AD0000CF0895D8193CB010097A1F716F45DE2AC
:103AE00051931082C9010C94751DDC01FC01672FF4
:103AF00071917723E1F7329704C07C916D937083C5
:0E3B00006291AE17BF07C8F30895F894FFCF87
:103B0E004F50504F2052656E6F320031313131328D
:103B1E0032323200506C65617365205761697400F2
:103B2E0062706D203D2000617667203D0041544556
:103B3E00300D0A0041540D0A0041542B43574D4F8E
:103B4E0044453D310D0A0041542B4349504D4F44DD
:103B5E00453D300D0A0041542B4349504D55583DBB
:103B6E00300D0A0041542B43574A41505F43555282
:103B7E003D2200222C2200220D0A0041542B4349E3
:103B8E005053544152543D22544350222C22002271
:103B9E002C000D0A003136322E3235332E313535AA
:103BAE002E3232360038300041542B4349505345A3
:103BBE004E443D35350D0A004745542068747470E7
:103BCE003A2F2F65656365323032322E6672656527
:103BDE007661722E636F6D2F5265636965766572BD
:103BEE0048422E7068703F6C696E653D300D0A005C
:103BFE0047455420687474703A2F2F65656365329B
:103C0E003032322E667265657661722E636F6D2F5D
:103C1E00526563696576657250522E7068703F6C9E
:103C2E00696E653D300D0A0041542B434950534592
:103C3E004E443D35390D0A0041542B4349505345EE
:103C4E004E443D36300D0A0047455420687474705A
:103C5E003A2F2F65656365323032322E6672656596
:103C6E007661722E636F6D2F5472616E736D69740F
:103C7E0074657248422E7068703F646174613D00D5
:103C8E0047455420687474703A2F2F65656365320A
:103C9E003032322E667265657661722E636F6D2FCD
:103CAE005472616E736D697474657250522E7068C1
:103CBE00703F646174613D00000000000000000070
:103CCE0000010202030303030404040404040404B5
:103CDE000505050505050505050505050505050586
:103CEE000606060606060606060606060606060666
:103CFE000606060606060606060606060606060656
:103D0E000707070707070707070707070707070735
:103D1E000707070707070707070707070707070725
:103D2E000707070707070707070707070707070715
:103D3E000707070707070707070707070707070705
:103D4E0008080808080808080808080808080808E5
:103D5E0008080808080808080808080808080808D5
:103D6E0008080808080808080808080808080808C5
:103D7E0008080808080808080808080808080808B5
:103D8E0008080808080808080808080808080808A5
:103D9E000808080808080808080808080808080895
:103DAE000808080808080808080808080808080885
:103DBE000808080808080808080808080808080875
:063DCE00000000000000EF
:00000001FF
