:100000000C942A000C9434000C9434000C943400AA
:100010000C9434000C9434000C9434000C94340090
:100020000C9434000C9434000C9434000C94340080
:100030000C9434000C9434000C9434000C94340070
:100040000C9434000C9434000C9434000C94340060
:100050000C94340011241FBECFE5D8E0DEBFCDBF25
:100060000E9467040C9474040C940000DF93CF93F7
:1000700000D000D00F92CDB7DEB789836A834B835F
:100080008981282F30E03D832C838C819D818230B3
:10009000910509F472C02C813D812330310534F47F
:1000A0008C819D818130910571F073C12C813D81DE
:1000B0002330310509F4BBC08C819D8184309105CA
:1000C00009F40FC166C18B818823A9F4AAE3B0E0CB
:1000D000EAE3F0E08081482F8A81282F30E081E038
:1000E00090E0022E02C0880F991F0A94E2F78095D3
:1000F00084238C934EC18B818130A1F4AAE3B0E0BC
:10010000EAE3F0E08081482F8A81282F30E081E007
:1001100090E0022E02C0880F991F0A94E2F7842B08
:100120008C9337C18B81823009F033C1AAE3B0E0F0
:10013000EAE3F0E08081482F8A81282F30E081E0D7
:1001400090E002C0880F991F2A95E2F780958423DA
:100150008C93ABE3B0E0EBE3F0E08081482F8A8141
:10016000282F30E081E090E0022E02C0880F991F16
:100170000A94E2F7842B8C930CC18B818823A9F419
:10018000A7E3B0E0E7E3F0E08081482F8A81282FE1
:1001900030E081E090E0022E02C0880F991F0A949F
:1001A000E2F7809584238C93F4C08B818130A1F495
:1001B000A7E3B0E0E7E3F0E08081482F8A81282FB1
:1001C00030E081E090E0022E02C0880F991F0A946F
:1001D000E2F7842B8C93DDC08B81823009F0D9C08B
:1001E000A7E3B0E0E7E3F0E08081482F8A81282F81
:1001F00030E081E090E002C0880F991F2A95E2F775
:10020000809584238C93A8E3B0E0E8E3F0E080815C
:10021000482F8A81282F30E081E090E0022E02C032
:10022000880F991F0A94E2F7842B8C93B2C08B81BC
:100230008823A9F4A4E3B0E0E4E3F0E08081482F50
:100240008A81282F30E081E090E0022E02C0880FE2
:10025000991F0A94E2F7809584238C939AC08B812E
:100260008130A1F4A4E3B0E0E4E3F0E08081482F22
:100270008A81282F30E081E090E0022E02C0880FB2
:10028000991F0A94E2F7842B8C9383C08B81823070
:1002900009F07FC0A4E3B0E0E4E3F0E08081482F00
:1002A0008A81282F30E081E090E002C0880F991FFA
:1002B0002A95E2F7809584238C93A5E3B0E0E5E3EB
:1002C000F0E08081482F8A81282F30E081E090E0A3
:1002D000022E02C0880F991F0A94E2F7842B8C9398
:1002E00058C08B818823A9F4A1E3B0E0E1E3F0E0FA
:1002F0008081482F8A81282F30E081E090E0022E13
:1003000002C0880F991F0A94E2F7809584238C938A
:1003100040C08B818130A1F4A1E3B0E0E1E3F0E0E3
:100320008081482F8A81282F30E081E090E0022EE2
:1003300002C0880F991F0A94E2F7842B8C9329C07E
:100340008B81823031F5A1E3B0E0E1E3F0E0808120
:10035000482F8A81282F30E081E090E002C0880F8A
:10036000991F2A95E2F7809584238C93A2E3B0E04D
:10037000E2E3F0E08081482F8A81282F30E081E09D
:1003800090E0022E02C0880F991F0A94E2F7842B96
:100390008C930F900F900F900F900F90CF91DF9153
:1003A0000895DF93CF9300D000D0CDB7DEB7898317
:1003B0006A838981282F30E03C832B838B819C8149
:1003C00082309105D9F02B813C812330310534F402
:1003D0008B819C818130910561F01EC02B813C8115
:1003E0002330310581F08B819C818430910581F02F
:1003F00013C0EAE3F0E08A8180830EC0E7E3F0E017
:100400008A81808309C0E4E3F0E08A81808304C0AC
:10041000E1E3F0E08A8180830F900F900F900F90BE
:10042000CF91DF910895DF93CF9300D000D0CDB767
:10043000DEB789836A838981282F30E03C832B8350
:100440008B819C818230910591F12B813C812330FD
:10045000310534F48B819C818130910569F074C041
:100460002B813C8123303105E1F18B819C818430EB
:10047000910509F450C068C08A81882321F4EAE319
:10048000F0E0108261C08A81813029F4EAE3F0E073
:100490008FEF808359C08A81823009F055C0EAE32A
:1004A000F0E01082EBE3F0E08FEF80834DC08A81B3
:1004B000882321F4E7E3F0E0108246C08A8181308E
:1004C00029F4E7E3F0E08FEF80833EC08A81823039
:1004D000D9F5E7E3F0E01082E8E3F0E08FEF808306
:1004E00033C08A81882321F4E4E3F0E010822CC039
:1004F0008A81813029F4E4E3F0E08FEF808324C027
:100500008A81823009F5E4E3F0E01082E5E3F0E06F
:100510008FEF808319C08A81882321F4E1E3F0E022
:10052000108212C08A81813029F4E1E3F0E08FEF7C
:1005300080830AC08A81823039F4E1E3F0E01082DE
:10054000E2E3F0E08FEF80830F900F900F900F9019
:10055000CF91DF910895DF93CF9300D000D00F9219
:10056000CDB7DEB789836A834B838981282F30E03A
:100570003D832C838C819D818230910509F448C094
:100580002C813D812330310534F48C819D81813073
:10059000910571F0CBC02C813D812330310509F4E8
:1005A00067C08C819D818430910509F491C0BEC0E3
:1005B0008B818823A9F4ABE3B0E0EBE3F0E080812A
:1005C000482F8A81282F30E081E090E0022E02C07F
:1005D000880F991F0A94E2F7809584238C93A6C014
:1005E0008B81813009F0A2C0ABE3B0E0EBE3F0E037
:1005F0008081482F8A81282F30E081E090E0022E10
:1006000002C0880F991F0A94E2F7842B8C938EC046
:100610008B818823A9F4A8E3B0E0E8E3F0E08081CF
:10062000482F8A81282F30E081E090E0022E02C01E
:10063000880F991F0A94E2F7809584238C9376C0E3
:100640008B81813009F072C0A8E3B0E0E8E3F0E00C
:100650008081482F8A81282F30E081E090E0022EAF
:1006600002C0880F991F0A94E2F7842B8C935EC016
:100670008B818823A9F4A5E3B0E0E5E3F0E0808175
:10068000482F8A81282F30E081E090E0022E02C0BE
:10069000880F991F0A94E2F7809584238C9346C0B3
:1006A0008B81813009F042C0A5E3B0E0E5E3F0E0E2
:1006B0008081482F8A81282F30E081E090E0022E4F
:1006C00002C0880F991F0A94E2F7842B8C932EC0E6
:1006D0008B818823A9F4A2E3B0E0E2E3F0E080811B
:1006E000482F8A81282F30E081E090E0022E02C05E
:1006F000880F991F0A94E2F7809584238C9316C083
:100700008B81813099F4A2E3B0E0E2E3F0E08081F4
:10071000482F8A81282F30E081E090E0022E02C02D
:10072000880F991F0A94E2F7842B8C930F900F90F7
:100730000F900F900F90CF91DF910895DF93CF939B
:1007400000D000D0CDB7DEB789836A838981282F96
:1007500030E03C832B838B819C8182309105D9F0E2
:100760002B813C812330310534F48B819C81813095
:10077000910561F01EC02B813C812330310581F051
:100780008B819C818430910581F013C0EBE3F0E014
:100790008A8180830EC0E8E3F0E08A81808309C00B
:1007A000E5E3F0E08A81808304C0E2E3F0E08A813F
:1007B00080830F900F900F900F90CF91DF9108954D
:1007C000DF93CF9300D000D00F92CDB7DEB78A83EE
:1007D0006B838A81282F30E03D832C838C819D811F
:1007E00082309105D9F02C813D812330310534F4DC
:1007F0008C819D818130910561F01EC02C813D81ED
:100800002330310581F08C819D818430910581F008
:1008100013C0E9E3F0E0808189830EC0E6E3F0E0F5
:100820008081898309C0E3E3F0E08081898304C08B
:10083000E0E3F0E08081898389810F900F900F9031
:100840000F900F90CF91DF910895DF93CF9300D059
:1008500000D0CDB7DEB78A838A81282F30E03C8371
:100860002B838B819C8182309105D9F02B813C8137
:100870002330310534F48B819C818130910561F006
:100880001EC02B813C812330310581F08B819C81FE
:100890008430910581F013C0E9E3F0E08081898321
:1008A0000EC0E6E3F0E08081898309C0E3E3F0E075
:1008B0008081898304C0E0E3F0E0808189838981BD
:1008C0000F900F900F900F90CF91DF910895DF93CD
:1008D000CF93CDB7DEB782E061E00E94130282E0E1
:0C08E00062E30E949E03FBCFF894FFCF60
:00000001FF
